:0E0000000C9437000C9400000C9400000C943B
:10000E0000000C9400000C9400000C9400000C9462
:10001E0000000C9400000C9400000C9400000C9452
:10002E0000000C9400000C9400000C9400000C9442
:10003E0000000C9400000C9400000C9400000C9432
:10004E0000000C94000000003F065B4F666D7D07BC
:10005E007F6F0200040054000A0060025600000088
:10006E00F894EE27ECBBF1E0F5BFE5BF8DE0A2E022
:10007E00BB27ED938A95E9F780E098E0A0E6ED9333
:10008E000197E9F7E0E6F0E085919591009761F030
:10009E00A591B59105901590BF01F00105900D92B7
:1000AE000197E1F7FB01F0CFEFE5EDBFE8E0EEBF22
:1000BE00C0E6D2E00C946300EFEFEABBE0E0EBBBEE
:1000CE00EFEFE7BBE0E0E8BBE4BBE5BBE1BBE2BBC7
:1000DE00E3BFE2BFECBFEFBDEEBDEDBDECBDE7BDD6
:1000EE00E6BDEBBDEABDE9BDE8BDE2BDE5BDE4BDE3
:1000FE00E3BDE9BFE5BFE4BFEAB9E0E8E8B9E0E097
:10010E00E0BFE6B9EDB9E6BFA0E6B2E0A40DB51DBD
:10011E00EC91EBBBF20131962F01A8ECB0E00E94FE
:10012E00A500EAE0F0E0E415F50511F444245524A9
:10013E00A4EFB1E00E94A500E7CFFFCF109639F0F3
:10014E008AEF90E00197F1F7A8951197C9F70895F6
:00000001FF
