:0C0000000C942A000C9400000C940000EA
:10000C000C9400000C9400000C9400000C94000064
:10001C000C9400000C9400000C9400000C94000054
:10002C000C9400000C9400000C9400000C94000044
:10003C000C9400000C9400000C9400000C94000034
:10004C000C9400000C940000F894EE27ECBBF1E04B
:10005C00FBBFEBBFE5BF8DE0A2E0BB27ED938A951C
:10006C00E9F780E094E0A0E6ED930197E9F7EFE57E
:10007C00EDBFE4E0EEBFC0E6D1E00C945300AA93D0
:10008C00E881E062E7B983E08A95F1F7369A349B10
:10009C00FECF349AE5B121960895E0E0EABBEBBBC4
:1000AC00E7BBE8BBE3E0E4BBE0E0E5BBE0E8E1BBD9
:1000BC00E0E0E2BBE2BDE2E6E5BDE0E0E4BDE3BDCD
:1000CC00E0E2E7B9E1E8E6B9E0E0E0BFE3BDA0E0DB
:1000DC00D6DFE3BDB09902C0A898A99AB19902C025
:1000EC00A89AA998B29902C0A898A998F0CFFFCF66
:00000001FF
