:0E0000000C943F000C9400000C9400000C9433
:10000E0000000C9400000C9400000C9400000C9462
:10001E0000000C9400000C9400000C9400000C9452
:10002E0000000C9400000C9400000C9400000C9442
:10003E0000000C9400000C9400000C9400000C9432
:10004E0000000C94000054656D703D2564002D4E2B
:10005E00414E000080C001002D4E414E00494E46DB
:10006E00000002006F0262000100730264000000D3
:10007E00F894EE27ECBBF1E0F5BFE5BF8DE0A2E012
:10008E00BB27ED938A95E9F780E098E0A0E6ED9323
:10009E000197E9F7E0E7F0E085919591009761F01F
:1000AE00A591B59105901590BF01F00105900D92A7
:1000BE000197E1F7FB01F0CFEFE5EDBFE8E0EEBF12
:1000CE00C0E6D2E00C947A00AA93E881E06CE7B91E
:1000DE0083E08A95F1F7369A349BFECF349AE4B1D9
:1000EE00F5B10C94C504E0E0EABBEBBBE7BBE8BBA3
:1000FE00E4BBE5BBE1BBE2BBE3BFE2BFECBFEFBDE0
:10010E00EEBDEDBDECBDE7BDE6BDEBBDEABDE9BDA7
:10011E00E8BDE2BDE5BDE4BDE3BDE9BFE5BFE4BFBB
:10012E00EAB9E0E8E8B9E3E8E6B9E0E0E0BFEDB946
:10013E00E6BFA0E10E949904A2E0C6DF66277727FA
:10014E000E944D07ABE2BEE08FE79EE30E94D70709
:10015E000E9416072F01E0E6F2E0FA93EA93E4E537
:10016E00F0E0FA93EA93F2010E949C080E940E09B5
:10017E0084E00E94F5032896A0E6B2E00E9488046F
:10018E00A4EFB1E00E94D7060E946704D5CFFFCF3F
:10019E00BA93AA931A930A93AA81BB8112960E94CC
:1001AE00F508309729F1AA81BB8114960E94F508B3
:1001BE008F01309761F00230E0E01E0780F0F80109
:1001CE0031978F01AA81BB811496ED93FC93AA817E
:1001DE00BB8112960E94D6053197AC81A083AA816D
:1001EE00BB810E94F508FF2312F00E94D60506C0BF
:1001FE00AA81BB81EFEFFFEFED93FC93198108818C
:10020E00259608950E94DC05E0E8EA83EFE3EB8390
:10021E000E942B09EE85FF85EF3FAFEFFA0749F4F9
:10022E00E885F985FA93EA93ACE5B0E00E94C7043D
:10023E00B7C0EF3FAFE7FA0749F4E885F985FA93BF
:10024E00EA93ADE5B0E00E94C704AAC0AB85A73023
:10025E0010F0E6E0EB871B85E12F1150E03019F02E
:10026E000E94E305F9CFEC85FD856E857F850E94A2
:10027E00250921F430E00E94E3052DC03B850E9444
:10028E00F20509F008F40BC00E94E3050E94F20586
:10029E0028F00E94FD050E940206F8CF0DC00E94B4
:1002AE00F20540F40E94FD050E940E060E941506FE
:1002BE003150F5CF0E94E305EC85FD856E857F8577
:1002CE000E941A060E9415060E94F20520F00E9456
:1002DE00FD050E94020610E0EB85E117A8F1AC8146
:1002EE00BD818E819F810E9421060E941A06DF0128
:1002FE00CB010E941E05EC83FD836E837F830E94DB
:10030E00FD050E9425080E9414070E2F0E94280644
:10031E000E942F06FF27662777270E944D07AC8184
:10032E00BD818E819F810E94D7070E94FD050E948C
:10033E0034060E941506E12F1F5FE03069F60E9419
:10034E002806EEE2EC93C8CF0E9439063197AA85B3
:10035E00A08330302CF43195A885B985EDE203C029
:10036E00A885B985EBE2EC930E9439060E94390606
:10037E003197BF01A32FEAE00E94AF08E05DDB01D9
:10038E00EC930E9439063197BF01A32FEAE00E9439
:10039E00D908E05DDB01EC93A885B985E0E0EC932C
:1003AE000E94320960960895BA93AA93EF976197C7
:1003BE000E94290910E0FE01E85AFF4F0190F081DA
:1003CE00E02DE887F987FE01EA5AFF4F0190F08190
:1003DE00E02DEE83FF83AE81BF81E0E0F0E0ED9390
:1003EE00FC93DE01A45ABF4F0E94D6053197E491CB
:1003FE002E2FE03009F4E9C1E12FE03039F4253237
:10040E0011F411E002C00E943F06DEC1E130C1F4DA
:10041E00253219F40E943F06D6C112E0E0E0ED8BC2
:10042E0000E02D3211F401E0CFC12B3219F4EBE2D2
:10043E00ED8BCAC1203219F4E0E2ED8BC5C102C0CA
:10044E00E23039F450E013E0203311F40068BCC1FF
:10045E0002C0E33091F4203310F02A3308F007C0C5
:10046E00AAE05A9F502DE22FE0535E0FADC140E03F
:10047E002E3211F414E0A8C10FC0E43099F42033E9
:10048E0010F02A3308F008C00062AAE04A9F402DFF
:10049E00E22FE0534E0F98C12C3619F4026015E08E
:1004AE0093C103C0E53009F08FC1E22FE33659F452
:1004BE000E9446060E944D060E944606A481AA93FB
:1004CE000E94540680C1E53411F0E53609F403C0EC
:1004DE00E63609F048C0FE017696EE87FF870E9449
:1004EE005A060E94F9080E9461060E946606AD85B2
:1004FE00AA2332F0AD89AB3259F0A03281F017C089
:10050E000E9468060E94E1060E946106EDE2ED8BF4
:10051E0007FF05C0ED89EA930E94540608C0EE85D8
:10052E00FF853196EE87FF873197AD89A08305FF52
:10053E0046E0263651F40E9468060E940E094A9340
:10054E00AB89BC890E94350509C00E9468060E94CD
:10055E000E094A932A93AC89BD8954DEFE01769624
:10056E000E946D061EC0E33739F40E9466060E9493
:10057E0075060E946D060EC0E037C1F40E94660635
:10058E000E947506EE87FF87AE85BF850E94E00448
:10059E001E2F08600F77403011F0411708F001C090
:1005AE00142F40E0E0E0EC8B30E06DC0E43611F04B
:1005BE00E93611F4046002C0E537A1F4EAE0EC8BF1
:1005CE0001FF08C0E0E0FAEC6AE97BE30E947A06DC
:1005DE001AE022C0E0E1F7E260E070E00E947A06E5
:1005EE0015E01AC0E83511F4086003C0E83709F0C9
:1005FE00EAC0E0E1EC8B01FF08C0E0E0F0E060E073
:10060E0070E10E947A0618E007C0E0E0F0E160E0D9
:10061E0070E00E947A0614E0403011F00F7701C0AE
:10062E0041E001FF08C00E9466060E945A06149619
:10063E000E94F9080FC002FF07C00E9466060E94C2
:10064E0075060E949C0806C00E9466060E947506EA
:10065E0066277727EA87FB876C877D8702FF12C0A4
:10066E00AD85AA2342F40E9468060E948E080E945D
:10067E006106EDE2ED8BED89E03019F01F5F4F5F03
:10068E0001C00B7F342F00FD14C0151710F4351761
:10069E0008F00FC007FF08C002FF04C00B7F2D89B2
:1006AE00115001C020E301C020E20E943F065150CC
:1006BE00ECCF141790F4006102FF06C00E947F0673
:1006CE0009F0515011504150E0E3EA930E94540654
:1006DE00503009F051504150ECCF312FEC89E030C1
:1006EE00B9F43030A1F003FF06C0EE85FF852591E9
:1006FE00EE87FF8705C0AE85BF852D91AE87BF877C
:10070E000E943F06503009F051503150EACF51C08F
:10071E000E9491060E94B4082E2F2A3030F003FF5B
:10072E0002C0295C01C0295A01C0205D04FD21C010
:10073E00213360F4A889B9898A899B89A130E0E0C8
:10074E00BE07E0E08E07E0E09E0709F40BC04317FA
:10075E0040F4531710F000FF01C010C020E207FF55
:10076E0008C020E3006102FF04C00E947F0609F06A
:10077E0051500E943F06503009F0515031500E94A6
:10078E0091060E94E5080E946106EC89A889B98944
:10079E008A899B89FF27662777270E94B4080E94C3
:1007AE007A06E889F9896A897B890E94250909F008
:1007BE00AFCF00FF08C0503031F05150E0E2EA9365
:1007CE000E945406F8CF10E00CCEAE81BF810E947D
:1007DE00F5080E943009EF966F960895FF92F82E55
:1007EE0026970E942B090E949A06309719F4EFEF74
:1007FE00FFEF23C0DE0116960E948A088D010E942B
:10080E009A06EE83FF83E0E0E887E987DE011A9619
:10081E000E948A080E94F508FA93EA931A930A93A3
:10082E00EFECF0E0FA93EA93DE011A96BDDD9F013C
:10083E00AE81BF81E0E0EC93F9010E9432092A9665
:10084E00FF900895AA93E881E07111F0C39A01C058
:10085E00C398E881E07211F0C49A01C0C498E8818F
:10086E00E07411F0C59A01C0C598E881E07811F0E6
:10087E00C69A01C0C69882E08A95F1F7C29A82E0C4
:10088E008A95F1F7C29882E08A95F1F777C0AA931C
:10089E00A881D8DFE881E295E883A881D3DF81E1E2
:1008AE008A95F1F76BC0AA93E881F0E0E159FD4F0C
:1008BE00E081A981AE0FEBDF7980688022960895E2
:1008CE00A2E00E94A106ACE0E2DFA1E00E94A10638
:1008DE00E0E06E2E7E2E0895AA93A881AA3011F024
:1008EE00791448F0E0E0EA936394A62DDCDFA8814A
:1008FE00AA3009F443C07394C09AA881C8DFC09887
:10090E003DC0BA93AA931A93A981BA81ED91A98396
:10091E00BA831E2FE03019F0A12FDEDFF5CF18813C
:10092E0023960895AA93BB9ABC9ABD9ABE9ABA9A78
:10093E00B89AB99AC298C098C1989880E881E05840
:10094E00E0937102E881E054E0937202A4E1B0E01A
:10095E000E94D7060E94A7060E94A7060E94A7061D
:10096E00A0E270DF81E28A95F1F7A8E290DFA4E0C1
:10097E008EDFA5E88CDFA6E08ADFA2DF2196089540
:10098E00BA93AA93E991F991A991B991CD010590E4
:10099E000D920020E1F7FC010895BA93AA93A99154
:1009AE00B991EE27FF276D91662311F03196FBCF9B
:1009BE000895BA93AA93AA27BB27E991F9910590B6
:1009CE00002011F01196FBCFFD0108950E9413092E
:1009DE007B816A81F981E88177FB770F67FD716012
:1009EE00972F9E5781F078F0983190F4AA27BB2765
:1009FE00882708948795B795A7959A95D1F7EA23F6
:100A0E00FB23682305C0E8947727EE27FF27662788
:100A1E006F77769508F4606877F9A991B991899105
:100A2E009991EA17FB076807790797FB08950E94CB
:100A3E0013090E9404090E94ED040E94090919F489
:100A4E000E94FF0809C0E6F70E94FF08A0E0B0E090
:100A5E0080E89FE30E94800724960895A6D0E0E0E8
:100A6E00EA83EFE3EB831A930A93EB85FC85EF3F62
:100A7E00AFEFFA0731F46BD1A6E6B0E00E94C704DF
:100A8E008AC0EF3FAFE7FA0731F461D1A7E6B0E0D5
:100A9E000E94C70480C0AC85AA2352F4E985FA856A
:100AAE006B857C850E94E10657D15BD1EDE2EC931C
:100ABE00A885A73010F0E6E0E8871885E12F1150E1
:100ACE00E03021F055D1B6D058D1F8CF5BD10E948D
:100ADE00870742D110E0E0E0F0E060E87FE34DD11F
:100AEE0051D10E946A0868F043D191D046D11F5F60
:100AFE00173230F02CD1ABE6B0E00E94C7044BC0E9
:100B0E00EFCF103021F42DD1E0E3EC9320C0E12F94
:100B1E001150E030E1F02CD18DD085D0DF01CB012A
:100B2E000E941E052AD12ED10E9425080E9414076C
:100B3E000E2F17D18DD0F0E01BD10E949C080E9481
:100B4E004D070E94D70727D188D006D1E0CFE88580
:100B5E00E030E9F006D1EEE2EC93E885E150E8876B
:100B6E00EF5FA9F018D153D0F7D0E985FA856B85E0
:100B7E007C850E9414070E2FF4D06AD0F0E00BD1C2
:100B8E000E949C080E944D0768D0E6D0E6CFAE8149
:100B9E00BF81E0E0EC93198108812D960895ED91C7
:100BAE00FD913196FE93EE930895BA93AA932497EE
:100BBE00E0E0E883E9830895AC81BD818E819F8159
:100BCE00E0E0F0E060E271E40E94D707EC83FD8381
:100BDE006E837F830895EC81FD816E817F81AC856C
:100BEE00BD858E859F850E946A080895AC85BD855A
:100BFE008E859F850895EDECFCEC6CEC7DE30E94F8
:100C0E00D707EC87FD876E877F873F5F0895E0E00B
:100C1E00F0E060E271E40E94D7070895EC87FD874B
:100C2E006E877F870895A0E0B0E080E09FE30E948A
:100C3E0087070895EDECFCEC6CEC7DE30E94D70782
:100C4E000895A885B9851196A887B9871197089533
:100C5E00E02FE05DEC93E02F08950E9418090E94AA
:100C6E0080070895E885F9853196E887F987089514
:100C7E002A93AF81B885E985FA8509950895FE0115
:100C8E00E65AFF4F0190F081E02D08953497DE0172
:100C9E00A65ABF4FED93FC930895AF81B885E985B1
:100CAE00FA8509950895DE01A65ABF4F0D90BC91A5
:100CBE00A02D0895EA87FB876C877D870895DFDF77
:100CCE00E5CFEA85FB856C857D850895EE87FF87E8
:100CDE00AE85BF850E94D4041E2F0895E4DF1496BE
:100CEE000E94F5080895E88BF98B6A8B7B8B08952B
:100CFE000B7FED89EA93DE01A95ABF4F0D90BC918F
:100D0E00A02DFE01E75AFF4F0190F081E02D0995CD
:100D1E0050300895E889F9896A897B89AA85BB854F
:100D2E008C859D850895DE011C960E948A080E947E
:100D3E00F50808950E944E04A3E0B0E00C94D70687
:100D4E00A0E30E94290481E28A95F1F70895EE81CD
:100D5E00FF81FA93EA930895E987FA876B877C8778
:100D6E000895AE81BF811196AE83BF83119708950A
:100D7E00AA81BB818C819D810895EA83FB836C835C
:100D8E007D830895EA81FB816C817D81A985BA8579
:100D9E008B859C850895A985BA858B859C8508953C
:100DAE00109639F08AEF90E00197F1F7A895119718
:100DBE00C9F7089530976040704009F07058089553
:100DCE00552342F4503811F4E0FF04C03196691FE8
:100DDE00791F6BF050E8572711F45F93CFC05F3F38
:100DEE0031F0660F000C57956795752F08955F9338
:100DFE0000200AF0CFC0C8C050E8192E1522880F67
:100E0E00991F9527550F879550E8072E0522660FD7
:100E1E00771F7527550F67950895689401C0E8945C
:100E2E005F93F2DF703818F07F3F08F4A7C056E1E9
:100E3E00571BAAF4519558300EF4593030F0EFEF9D
:100E4E00FFEF6FEF7FE777F91AC077275523B9F0D9
:100E5E00EE0FFF1F661F771F5A95D1F710C0772729
:100E6E00583028F0EF2FF62F672F5850F9CF552313
:100E7E0031F076956795F795E7955A95D1F700205D
:100E8E000AF445D15F910895689401C0E8943097B3
:100E9E0060407040B1F0002426F0772312F40094E5
:100EAE0036D1172E7EE1112032F07A95EE0FFF1F0C
:100EBE00661F111CF9CFEF2FF62F612D5F938ADF7E
:100ECE005F9108954F93AF01FD01DA01AB01BC01B3
:100EDE00CA01402D012C142E4F910895EA0FFB1FCD
:100EEE00681F0895E095F0956095EF5FFF4F6F4F87
:100EFE0008955F9381DF903871F150E8152604C094
:100F0E005F937ADF903839F1703821F1572F591BE2
:100F1E002BF112F4D7DFFACF583118F0AA27BB27DE
:100F2E008827583028F0AB2FB82F88275850F9CF84
:100F3E00552329F08695B795A7955A95D9F7502D33
:100F4E00512572F0CBDF38F46795F795E7957395D9
:100F5E0013F420C0B7DF3EDF5F910895D8F7FBCFC3
:100F6E00EA1BFB0B680B51F010F40094BBDF6623F9
:100F7E0092F3EE0FFF1F661F7A95CBF7EE27FF2732
:100F8E00662777275F910895EFEFFFEF6FE77FEF0B
:100F9E005F910895EFEFFFEF6FE77FE75F910895A1
:100FAE005F932ADF703851F3903841F3012408948F
:100FBE00791F23F41CF300203AF3ECCF0F921F930A
:100FCE002F933F934F93112722279927689FA001B4
:100FDE008F9F302D410D591F6B9F300D411D591F95
:100FEE008E9F27D0BF9F25D06A9F23D0BE9F1DD036
:100FFE00AF9F1BD0AE9F110D291F391F491F591FBF
:10100E00E32FF42F652F522F4F913F912F911F9168
:10101E000F9066232AF0550FEE1FFF1F661F02C0AA
:10102E0073954BF2CDDE5F910895100D211D391F82
:10103E0002C0200D311D491F591F08955F93DCDE3C
:10104E00703821F411200AF49FCFA4CF903809F400
:10105E0095CF01240894970B1BF4D4F30020F3CF03
:10106E00792F1F932F933F934F93112411272227EC
:10107E0033274427552790E2AE17BF07860741074F
:10108E0030F0AE1BBF0B860B410B089401C0889449
:10109E00551F221F331F111CAA1FBB1F881F441F61
:1010AE009A9551F7F901612D4F913F912F911F9113
:1010BE00662332F0550FEE1FFF1F661F7A9543F21F
:1010CE007FDE5F91089599239AF0772342F0971768
:1010DE0048F029F4AE17BF07860720F031F0989438
:1010EE00889408959894089408951894889408956F
:1010FE007723C2F7971798F3A9F7EA17FB07680744
:10110E0088F399F3ECCF0024AF0DB01D0895F09540
:10111E0060957095E195FF4F6F4F7F4F0895FE2FAD
:10112E00FF0FFF0B6F2F7F2F08956F2F660F660B2C
:10113E00762F0895002498E0AA0F001C0E1A10F4C2
:10114E000E0E01C0A1609A95B9F7EA2FA02D089551
:10115E0039D0F0DF0EF4E19508953F934F935F93EE
:10116E00002411244427552730E2AA0FBB1F881FE5
:10117E00991F001C111C441F551F0E1A1F0A460BE7
:10118E00570B28F40E0E1F1E461F571F01C0A160DD
:10119E003A9559F7FD01BC01D001CA015F914F91FB
:1011AE003F910895E894A7FF02C0A1956894E7FDCA
:1011BE00E195C0DFEA2F0EF4E1950895CEDFFD0133
:1011CE00BC010895E894E7FF02C0E1956894A7FF7B
:1011DE0004C0A19500F8039400FA0895ED91FC91D6
:1011EE0011970895ED91FD916D917C91139708954E
:1011FE00E881F9816A817B810895A881B9818A810C
:10120E009B810895E883F9836A837B8308957A939B
:10121E006A93FA93EA9308959A938A93BA93AA9348
:10122E000895182E862F612D192E972F712D1B2E96
:10123E00BF2FF12D1A2EAE2FE12D0895309760405D
:10124E00704008955A934A933A932A931A930A93A5
:10125E0008955D814C813B812A8119810881089511
:00000001FF
