:0C0000000C947F000C9400000C94000095
:10000C000C9400000C9400000C9400000C94000064
:10001C000C9400000C9400000C9400000C94000054
:10002C000C9400000C9400000C9400000C94000044
:10003C000C9400000C9400000C9400000C94000034
:10004C000C9400000C9400001027E80364000A00D4
:10005C00010000100001100001000000000031320E
:10006C0033344C4F434B454400454E544552204E7F
:10007C0045570A5041535320434F44450050415378
:10008C005320434F44450A4348414E4745442E00B4
:10009C004F50454E0057524F4E472050415353201E
:1000AC00434F4445000080C001002D4E414E004995
:1000BC004E4600000400040066000400CA026A00F8
:1000CC00070060026E00070067026E0014006E02EB
:1000DC007500130082028900050095029C00100037
:1000EC009A02A1000200D402B2000100D802B400AE
:1000FC000000F894EE27ECBBF1E0F5BFE5BF8DE016
:10010C00A2E0BB27ED938A95E9F780E098E0A0E6A2
:10011C00ED930197E9F7E0ECF0E08591959100976C
:10012C0061F0A591B59105901590BF01F001059076
:10013C000D920197E1F7FB01F0CFEFE5EDBFE8E0A1
:10014C00EEBFC0E6D2E00C94AB00E0E0EABBEBBB48
:10015C00E0EFE7BBEFE0E8BBE0E0E4BBE5BBE1BB15
:10016C00E2BBE3BFE2BFECBFEFBDEEBDEDBDECBD4E
:10017C00E7BDE6BDEBBDEABDE9BDE8BDE2BDE5BD51
:10018C00E4BDE3BDE9BFE5BFE4BFEAB9E0E8E8B927
:10019C00E0E0E0BFE6B9EDB9E6BFA0E10E941002D5
:1001AC000E94DE01A0E6B2E00E94FF0175D08099AA
:1001BC0007C0E2E0E71519F0E1E0E71509F401C02A
:1001CC000AC0ECE05E2E44240E945F02A7E6B2E077
:1001DC000E9452027724442019F4E0E0E093CF020D
:1001EC00E2E0E71569F4E3E2E51549F4E1E07E2E7F
:1001FC0044240E945F02AEE6B2E00E9452021BC091
:10020C00552031F0E3E2E51519F0ECE0E51509F4C1
:10021C0012C0E42DF0E0E153FD4F5082E42DF0E0EC
:10022C00E053FD4FA0E0A08343940E945F02AFEC2B
:10023C00B2E00E945202E4E0E41521F5E1E0E7159A
:10024C0069F40E9464020E9452020E945F02A2E8BA
:10025C00B2E00E945202E2E07E2E13C00E946402C1
:10026C000E943E02E03039F4E2E07E2E0E945F02F2
:10027C00A5E9B2E004C00E945F02AAE9B2E00E94C4
:10028C0052024424552031F00E94DE01AAEAB2E069
:10029C000E94FF018BCFFFCFE0EFE8BB0E946B0207
:1002AC005524C4980E946B02B09903C0EAE25E2EFA
:1002BC00FBCFB19903C0E7E35E2EFBCFB29903C02D
:1002CC00E4E35E2EFBCFB39903C0E1E35E2EFBCFDC
:1002DC00C49AC5980E946B02B09903C0E0E35E2EED
:1002EC00FBCFB19903C0E8E35E2EFBCFB29903C0FC
:1002FC00E5E35E2EFBCFB39903C0E2E35E2EFBCFAA
:10030C00C59AC6980E946B02B09903C0E3E25E2EB8
:10031C00FBCFB19903C0E9E35E2EFBCFB29903C0CA
:10032C00E6E35E2EFBCFB39903C0E3E35E2EFBCF77
:10033C00C69A0895AA93E881E07111F0DB9A01C086
:10034C00DB98E881E07211F0DC9A01C0DC98E8815E
:10035C00E07411F0DD9A01C0DD98E881E07811F0CD
:10036C00DE9A01C0DE9882E08A95F1F7DA9A82E093
:10037C008A95F1F7DA9882E08A95F1F777C0AA931B
:10038C00A881D8DFE881E295E883A881D3DF81E1F9
:10039C008A95F1F76BC0AA93E881F0E0EC52FD4F1F
:1003AC00E081A981AE0FEBDF6980988022960895D9
:1003BC00A2E00E946F02ACE0E2DFA1E00E946F02BB
:1003CC00E0E09E2E6E2E0895AA93A881AA3011F01B
:1003DC00681448F0E0E0EA939394A92DDCDFA8813F
:1003EC00AA3009F443C06394D89AA881C8DFD8987E
:1003FC003DC0BA93AA931A93A981BA81ED91A983AE
:10040C00BA831E2FE03019F0A12FDEDFF5CF188153
:10041C0023960895AA93D39AD49AD59AD69AD29A17
:10042C00D09AD19ADA98D898D9988880E881E058EF
:10043C00E093D602E881E054E093D702A4E1B0E067
:10044C000E947C020E9475020E9475020E94750235
:10045C00A0E270DF81E28A95F1F7A8E290DFA4E0D8
:10046C008EDFA5E88CDFA6E08ADFA2DF2196089557
:10047C00BA93AA93E991F991A991B9916D9171915E
:10048C00671721F46623D1F7EE270895671BE1F374
:10049C00E1E008F4E2500895BA93AA93E991F99136
:1004AC00A991B991CD0161916D936623E1F7FC019E
:1004BC000895EAEAF2E0FA93EA930895EAECF2E09E
:1004CC00FA93EA93AFECB2E00895A2E0B0E00C949A
:1004DC007C020E94C501A3E0B0E00C947C02A0E376
:1004EC000E94A00181E28A95F1F70895109639F0E7
:1004FC008AEF90E00197F1F7A8951197C9F7089545
:00000001FF
