:080000000C943C000C9400007C
:100008000C9400000C9400000C9400000C94000068
:100018000C9400000C9400000C9400000C94000058
:100028000C9400000C9400000C9400000C94000048
:100038000C9400000C9400000C9400000C94000038
:100048000C9400000C9400000C9400000000C0F90F
:10005800A4B0999282F880903F065B4F666D7D0749
:100068007F6F0200040054000A0060026000000074
:10007800F894EE27ECBBF1E0F5BFE5BF8DE0A2E018
:10008800BB27ED938A95E9F780E098E0A0E6ED9329
:100098000197E9F7EAE6F0E085919591009761F01C
:1000A800A591B59105901590BF01F00105900D92AD
:1000B8000197E1F7FB01F0CFEFE5EDBFE8E0EEBF18
:1000C800C0E6D2E00C946800EFEFEABBE4BB2497EB
:1000D800F201309731F4A89AA998AA98E5E0F0E0DF
:1000E80013C0E130A0E0FA0731F4A898A99AAA98B9
:1000F800E4E0F0E009C0E230A0E0FA0739F4A8989B
:10010800A998AA9AE9E0F0E0E883F983E881F981FF
:10011800EA83FB83AB81AA2382F0EA81FB81E05A60
:10012800FD4FE081EBBBA4EFB1E00E94BA00EA8189
:10013800FB813197EA83FB83EDCF042C052819F462
:10014800E2E0F0E00FC0E1E0F0E0E415F50519F4B5
:100158004424552408C0E2E0F0E0E415F50519F45C
:10016800E1E0F0E02F012496B2CFFFCF109639F0EE
:100178008AEF90E00197F1F7A8951197C9F70895CC
:00000001FF
