:040000000C9441001B
:100004000C9400000C9400000C9400000C9400006C
:100014000C9400000C9400000C9400000C9400005C
:100024000C9400000C9400000C9400000C9400004C
:100034000C9400000C9400000C9400000C9400003C
:100044000C9400000C9400000C9400000C9400002C
:100054001027E80364000A000100001000011000EA
:1000640001001E0100002532643A2532640080C07C
:1000740004000400660002006A0272000000F894A2
:10008400EE27ECBBF1E0F5BFE5BF8DE0A2E0BB27B6
:10009400ED938A95E9F780E098E0A0E6ED93019767
:1000A400E9F7E4E7F0E085919591009761F0A59177
:1000B400B59105901590BF01F00105900D9201973F
:1000C400E1F7FB01F0CFEFE5EDBFE8E0EEBFC0E6FE
:1000D400D2E00C948200442039F4E0E0E51518F4F1
:1000E400EBE34E2E5A9401C04A940895EBE3E415D1
:1000F40029F444245E1608F4539401C043940895EB
:10010400E0E0EABBEBBBE7BBEFE0E8BBE0E0E4BB6D
:10011400E5BBE1E0E1BBE0E0E2BBE3BFE2BFECBF93
:10012400EFBDEEBDEDBDECBDE7BDE6BDEBBDEABD8B
:10013400E9BDE8BDE2BDE5BDE4BDE3BDE9BFE5BFA2
:10014400E4BFEAB9E0E8E8B9E0E0E0BFE6B9EDB958
:10015400E6BFA0E10E942503B29902C0772009F00E
:1001640005C0C4DFA8ECB0E00E94A503B39902C0A7
:10017400772009F005C0AFDFA8ECB0E00E94A5032A
:10018400B0990AC07724AF98E1E05E2EEEE14E2EDE
:10019400AAE0B0E00E94A503B19906C0E1E07E2E7A
:1001A400AAE0B0E00E94A503E1E0E71569F4552058
:1001B40011F4442009F002C0E2E07E2EA4EFB1E085
:1001C4000E94A50388DF04C0E2E0E71509F4909AD1
:1001D400E0E6F2E0FA93EA93EAE6F0E0FA93EA93CF
:1001E400E52DFF27662777270E94BF03E42DFF270D
:1001F400662777270E94BF0388E00E9481022C961D
:10020400E0E0EA93A0E00E94E602A0E6B2E00E94E9
:100214001403A2CFFFCFBA93AA931A930A93AA8185
:10022400BB8112960E94B703309759F1AA81BB8112
:1002340014960E94B7038F01309761F00230E0E01A
:100244001E0798F0F80131978F01AA81BB8114969B
:10025400ED93FC93AA81BB811296ED91FD913196A9
:10026400FE93EE933197AC81A083AA81BB810E9457
:10027400B703FF232AF0ED91FD913196FE93EE939F
:1002840006C0AA81BB81EFEFFFEFED93FC931981C8
:10029400088125960895BA93AA9326970E94C403C9
:1002A40010E0AC85BD85E0E0F0E0ED93FC93EA89D5
:1002B400FB893196EA8BFB8B3197E4912E2FE0304A
:1002C40009F415C1E12FE03039F4253211F411E0BD
:1002D40002C00E946C030AC1E130A9F4253219F46A
:1002E4000E946C0302C112E040E000E02D3211F4E0
:1002F40001E0FCC02B3211F44BE2F8C0203211F4BF
:1003040040E2F4C002C0E23039F450E013E020339C
:1003140011F40068EBC003C0E33009F0E7C02033F8
:1003240010F02A3308F007C0AAE05A9F502DE22F9C
:10033400E0535E0FDBC0E22FE33649F40E947303FF
:10034400E889F989A481AA930E947903CEC0E3378E
:1003540041F40E9473030E947F030E9453031E2FE3
:100364000AC0E03761F40E9473030E947F030E9475
:100374005F031E2F086002600F7730E034C0E4365C
:1003840011F0E93611F4046002C0E53731F4E4E514
:10039400F0E0EE83FF8315E00CC0E83511F408604B
:1003A40003C0E83709F0A1C0EEE5F0E0EE83FF8377
:1003B40014E002FF14C00E9473030E948903AB85FA
:1003C400AA233AF4EA85FB850E94B303EA87FB87F4
:1003D4004DE2403011F01F5F01C00B7F04C00E944A
:1003E40073030E94890300FD11C0151778F407FFF9
:1003F40008C002FF04C00B7F242F115001C020E36A
:1004040001C020E20E946C035150EFCF312F01FF55
:1004140017C03030A1F003FF06C0EE81FF812591A3
:10042400EE83FF8305C0AE81BF812D91AE83BF8370
:100434000E946C03503009F051503150EACF4BC048
:1004440020E3EE81FF810E94BB03E887F987EE81F8
:10045400FF813296EE83FF83E885F985AA85BB8503
:10046400AE17BF0750F02F5FA885B985EA85FB85D5
:10047400EA1BFB0BEA87FB87EFCF2A3328F003FF45
:1004840002C0295F01C0295D04FD1AC0213320F494
:10049400A885B985119709F409C0531710F000FF16
:1004A40001C013C020E207FF0BC020E3006102FF7C
:1004B40007C00B7F4A930E947903503009F05150D2
:1004C4000E946C03503009F051503150A885B98511
:1004D400129708F0B5CF00FF08C0503031F05150EA
:1004E400E0E2EA930E947903F8CF10E0E0CEAC8515
:1004F400BD850E94B7030E94CB0364960895FF92C2
:10050400F82E26970E94C6030E949103309719F48F
:10051400EFEFFFEF23C0DE0116960E94AF038D01BB
:100524000E949103EE83FF83E0E0E887E987DE0120
:100534001A960E94AF030E94B703FA93EA931A93A0
:100544000A93EDE0F1E0FA93EA93DE011A96A3DE52
:100554009F01AE81BF81E0E0EC93F9010E94CD03DD
:100564002A96FF900895AA93E881E07111F0DB9A2E
:1005740001C0DB98E881E07211F0DC9A01C0DC98DC
:10058400E881E07411F0DD9A01C0DD98E881E0783B
:1005940011F0DE9A01C0DE9882E08A95F1F7DA9ACA
:1005A40082E08A95F1F7DA9882E08A95F1F777C0CC
:1005B400AA93A881D8DFE881E295E883A881D3DFF4
:1005C40081E18A95F1F76BC0AA93E881F0E0E659DE
:1005D400FD4FE081A981AE0FEBDF69809880229600
:1005E4000895A2E00E949803ACE0E2DFA1E00E943B
:1005F4009803E0E09E2E6E2E0895AA93A881AA3057
:1006040011F0681448F0E0E0EA939394A92DDCDF3C
:10061400A881AA3009F443C06394D89AA881C8DF9A
:10062400D8983DC0BA93AA931A93A981BA81ED913F
:10063400A983BA831E2FE03019F0A12FDEDFF5CF96
:10064400188123960895AA93D39AD49AD59AD69AC0
:10065400D29AD09AD19ADA98D898D9988880E88191
:10066400E058E0936C02E881E054E0936D02A4E169
:10067400B0E00E94A5030E949E030E949E030E9474
:100684009E03A0E270DF81E28A95F1F7A8E290DF91
:10069400A4E08EDFA5E88CDFA6E08ADFA2DF219646
:1006A4000895BA93AA93A991B991EE27FF276D9162
:1006B400662311F03196FBCF0895BA93AA93AA2723
:1006C400BB27E991F9910590002011F01196FBCF19
:1006D400FD0108952A93AD85BE85EF85F8890995B6
:1006E4000895E889F9893497E88BF98B0895AD85E5
:1006F400BE85EF85F88909950895A889B989149666
:100704000E94B703EE83FF83AE81BF810895A88959
:10071400B98914960E94B703EA87FB870895DE011E
:100724001C960E94AF030E94B70308950E94DA0248
:10073400A3E0B0E00C94A503A0E30E94B50281E21B
:100744008A95F1F70895109639F08AEF90E00197B1
:10075400F1F7A8951197C9F708950024AF0DB01DBE
:100764000895F195E195F0400895ED91FC9111976C
:1007740008950590F491E02D08957A936A93FA937D
:10078400EA9308955A934A933A932A931A930A93AD
:1007940008955D814C813B812A81198108810895E6
:00000001FF
